{"abi":[{"type":"constructor","inputs":[{"name":"tokenAddress","type":"address","internalType":"address"},{"name":"v1","type":"address","internalType":"address"},{"name":"v2","type":"address","internalType":"address"},{"name":"v3","type":"address","internalType":"address"}],"stateMutability":"nonpayable"},{"type":"function","name":"addValidator","inputs":[{"name":"validator","type":"address","internalType":"address"}],"outputs":[],"stateMutability":"nonpayable"},{"type":"function","name":"fileEndorsement","inputs":[{"name":"endorsee","type":"address","internalType":"address"},{"name":"endorserName","type":"string","internalType":"string"},{"name":"endorseeName","type":"string","internalType":"string"},{"name":"location","type":"string","internalType":"string"},{"name":"occupation","type":"string","internalType":"string"},{"name":"phoneNumber","type":"string","internalType":"string"},{"name":"reason","type":"string","internalType":"string"},{"name":"ipfsHash","type":"string","internalType":"string"},{"name":"review","type":"uint8","internalType":"uint8"}],"outputs":[],"stateMutability":"nonpayable"},{"type":"function","name":"getAllEndorsees","inputs":[],"outputs":[{"name":"","type":"address[]","internalType":"address[]"}],"stateMutability":"view"},{"type":"function","name":"getEndorsements","inputs":[{"name":"endorsee","type":"address","internalType":"address"}],"outputs":[{"name":"endorsers","type":"address[]","internalType":"address[]"},{"name":"endorserNames","type":"string[]","internalType":"string[]"},{"name":"endorseeNames","type":"string[]","internalType":"string[]"},{"name":"locations","type":"string[]","internalType":"string[]"},{"name":"occupations","type":"string[]","internalType":"string[]"},{"name":"phoneNumbers","type":"string[]","internalType":"string[]"},{"name":"reasons","type":"string[]","internalType":"string[]"},{"name":"ipfsHashes","type":"string[]","internalType":"string[]"},{"name":"timestamps","type":"uint256[]","internalType":"uint256[]"},{"name":"reviews","type":"uint8[]","internalType":"uint8[]"},{"name":"validatedFlags","type":"bool[]","internalType":"bool[]"}],"stateMutability":"view"},{"type":"function","name":"getEndorsementsByOccupation","inputs":[{"name":"_occupation","type":"string","internalType":"string"}],"outputs":[{"name":"","type":"tuple[]","internalType":"struct EndorsementManager.Endorsement[]","components":[{"name":"endorser","type":"address","internalType":"address"},{"name":"endorsee","type":"address","internalType":"address"},{"name":"endorserName","type":"string","internalType":"string"},{"name":"endorseeName","type":"string","internalType":"string"},{"name":"location","type":"string","internalType":"string"},{"name":"occupation","type":"string","internalType":"string"},{"name":"phoneNumber","type":"string","internalType":"string"},{"name":"reason","type":"string","internalType":"string"},{"name":"ipfsHash","type":"string","internalType":"string"},{"name":"timestamp","type":"uint256","internalType":"uint256"},{"name":"review","type":"uint8","internalType":"uint8"},{"name":"validated","type":"bool","internalType":"bool"}]}],"stateMutability":"view"},{"type":"function","name":"getValidators","inputs":[],"outputs":[{"name":"","type":"address[]","internalType":"address[]"}],"stateMutability":"view"},{"type":"function","name":"owner","inputs":[],"outputs":[{"name":"","type":"address","internalType":"address"}],"stateMutability":"view"},{"type":"function","name":"renounceOwnership","inputs":[],"outputs":[],"stateMutability":"nonpayable"},{"type":"function","name":"token","inputs":[],"outputs":[{"name":"","type":"address","internalType":"contract RGUKTTalukaToken"}],"stateMutability":"view"},{"type":"function","name":"transferOwnership","inputs":[{"name":"newOwner","type":"address","internalType":"address"}],"outputs":[],"stateMutability":"nonpayable"},{"type":"function","name":"validateEndorsement","inputs":[{"name":"endorsee","type":"address","internalType":"address"},{"name":"index","type":"uint256","internalType":"uint256"}],"outputs":[],"stateMutability":"nonpayable"},{"type":"function","name":"validators","inputs":[{"name":"","type":"uint256","internalType":"uint256"}],"outputs":[{"name":"","type":"address","internalType":"address"}],"stateMutability":"view"},{"type":"event","name":"EndorsementFiled","inputs":[{"name":"endorser","type":"address","indexed":true,"internalType":"address"},{"name":"endorsee","type":"address","indexed":true,"internalType":"address"},{"name":"reason","type":"string","indexed":false,"internalType":"string"},{"name":"ipfsHash","type":"string","indexed":false,"internalType":"string"},{"name":"location","type":"string","indexed":false,"internalType":"string"},{"name":"occupation","type":"string","indexed":false,"internalType":"string"},{"name":"review","type":"uint8","indexed":false,"internalType":"uint8"},{"name":"timestamp","type":"uint256","indexed":false,"internalType":"uint256"}],"anonymous":false},{"type":"event","name":"EndorsementValidated","inputs":[{"name":"index","type":"uint256","indexed":true,"internalType":"uint256"},{"name":"validator","type":"address","indexed":true,"internalType":"address"},{"name":"endorser","type":"address","indexed":true,"internalType":"address"},{"name":"timestamp","type":"uint256","indexed":false,"internalType":"uint256"}],"anonymous":false},{"type":"event","name":"OwnershipTransferred","inputs":[{"name":"previousOwner","type":"address","indexed":true,"internalType":"address"},{"name":"newOwner","type":"address","indexed":true,"internalType":"address"}],"anonymous":false},{"type":"event","name":"ValidatorAdded","inputs":[{"name":"validator","type":"address","indexed":true,"internalType":"address"}],"anonymous":false},{"type":"error","name":"OwnableInvalidOwner","inputs":[{"name":"owner","type":"address","internalType":"address"}]},{"type":"error","name":"OwnableUnauthorizedAccount","inputs":[{"name":"account","type":"address","internalType":"address"}]}],"bytecode":{"object":"0x608060405234801561000f575f5ffd5b506040516140653803806140658339818101604052810190610031919061033a565b335f73ffffffffffffffffffffffffffffffffffffffff168173ffffffffffffffffffffffffffffffffffffffff16036100a2575f6040517f1e4fbdf700000000000000000000000000000000000000000000000000000000815260040161009991906103ad565b60405180910390fd5b6100b18161021b60201b60201c565b508360015f6101000a81548173ffffffffffffffffffffffffffffffffffffffff021916908373ffffffffffffffffffffffffffffffffffffffff160217905550600483908060018154018082558091505060019003905f5260205f20015f9091909190916101000a81548173ffffffffffffffffffffffffffffffffffffffff021916908373ffffffffffffffffffffffffffffffffffffffff160217905550600482908060018154018082558091505060019003905f5260205f20015f9091909190916101000a81548173ffffffffffffffffffffffffffffffffffffffff021916908373ffffffffffffffffffffffffffffffffffffffff160217905550600481908060018154018082558091505060019003905f5260205f20015f9091909190916101000a81548173ffffffffffffffffffffffffffffffffffffffff021916908373ffffffffffffffffffffffffffffffffffffffff160217905550505050506103c6565b5f5f5f9054906101000a900473ffffffffffffffffffffffffffffffffffffffff169050815f5f6101000a81548173ffffffffffffffffffffffffffffffffffffffff021916908373ffffffffffffffffffffffffffffffffffffffff1602179055508173ffffffffffffffffffffffffffffffffffffffff168173ffffffffffffffffffffffffffffffffffffffff167f8be0079c531659141344cd1fd0a4f28419497f9722a3daafe3b4186f6b6457e060405160405180910390a35050565b5f5ffd5b5f73ffffffffffffffffffffffffffffffffffffffff82169050919050565b5f610309826102e0565b9050919050565b610319816102ff565b8114610323575f5ffd5b50565b5f8151905061033481610310565b92915050565b5f5f5f5f60808587031215610352576103516102dc565b5b5f61035f87828801610326565b945050602061037087828801610326565b935050604061038187828801610326565b925050606061039287828801610326565b91505092959194509250565b6103a7816102ff565b82525050565b5f6020820190506103c05f83018461039e565b92915050565b613c92806103d35f395ff3fe608060405234801561000f575f5ffd5b50600436106100b2575f3560e01c8063b666ca9d1161006f578063b666ca9d14610176578063b7ab4db5146101b0578063ce27cc2d146101ce578063f2fde38b146101ec578063f57b9fd914610208578063fc0c546a14610224576100b2565b806304b3c6e9146100b657806335aa2e44146100d25780634d238c8e14610102578063715018a61461011e5780638184b1a0146101285780638da5cb5b14610158575b5f5ffd5b6100d060048036038101906100cb9190612658565b610242565b005b6100ec60048036038101906100e79190612813565b6108d9565b6040516100f9919061284d565b60405180910390f35b61011c60048036038101906101179190612866565b610914565b005b610126610af9565b005b610142600480360381019061013d9190612891565b610b0c565b60405161014f9190612b65565b60405180910390f35b610160611317565b60405161016d919061284d565b60405180910390f35b610190600480360381019061018b9190612866565b61133e565b6040516101a79b9a99989796959493929190612ee0565b60405180910390f35b6101b8611ce4565b6040516101c59190612fd6565b60405180910390f35b6101d6611d6f565b6040516101e39190612fd6565b60405180910390f35b61020660048036038101906102019190612866565b611dfa565b005b610222600480360381019061021d9190612ff6565b611e7e565b005b61022c61227a565b604051610239919061308f565b60405180910390f35b5f73ffffffffffffffffffffffffffffffffffffffff168973ffffffffffffffffffffffffffffffffffffffff16036102b0576040517f08c379a00000000000000000000000000000000000000000000000000000000081526004016102a790613102565b60405180910390fd5b5f8351116102f3576040517f08c379a00000000000000000000000000000000000000000000000000000000081526004016102ea9061316a565b60405180910390fd5b5f825111610336576040517f08c379a000000000000000000000000000000000000000000000000000000000815260040161032d906131d2565b60405180910390fd5b5f885111610379576040517f08c379a00000000000000000000000000000000000000000000000000000000081526004016103709061323a565b60405180910390fd5b5f8751116103bc576040517f08c379a00000000000000000000000000000000000000000000000000000000081526004016103b3906132a2565b60405180910390fd5b5f8651116103ff576040517f08c379a00000000000000000000000000000000000000000000000000000000081526004016103f69061330a565b60405180910390fd5b5f855111610442576040517f08c379a000000000000000000000000000000000000000000000000000000000815260040161043990613372565b60405180910390fd5b5f845111610485576040517f08c379a000000000000000000000000000000000000000000000000000000000815260040161047c906133da565b60405180910390fd5b60058160ff1611156104cc576040517f08c379a00000000000000000000000000000000000000000000000000000000081526004016104c390613442565b60405180910390fd5b5f60025f8b73ffffffffffffffffffffffffffffffffffffffff1673ffffffffffffffffffffffffffffffffffffffff1681526020019081526020015f20805490500361057457600389908060018154018082558091505060019003905f5260205f20015f9091909190916101000a81548173ffffffffffffffffffffffffffffffffffffffff021916908373ffffffffffffffffffffffffffffffffffffffff1602179055505b60025f8a73ffffffffffffffffffffffffffffffffffffffff1673ffffffffffffffffffffffffffffffffffffffff1681526020019081526020015f206040518061018001604052803373ffffffffffffffffffffffffffffffffffffffff1681526020018b73ffffffffffffffffffffffffffffffffffffffff1681526020018a81526020018981526020018881526020018781526020018681526020018581526020018481526020014281526020018360ff1681526020015f1515815250908060018154018082558091505060019003905f5260205f2090600b02015f909190919091505f820151815f015f6101000a81548173ffffffffffffffffffffffffffffffffffffffff021916908373ffffffffffffffffffffffffffffffffffffffff1602179055506020820151816001015f6101000a81548173ffffffffffffffffffffffffffffffffffffffff021916908373ffffffffffffffffffffffffffffffffffffffff16021790555060408201518160020190816106f99190613654565b50606082015181600301908161070f9190613654565b5060808201518160040190816107259190613654565b5060a082015181600501908161073b9190613654565b5060c08201518160060190816107519190613654565b5060e08201518160070190816107679190613654565b5061010082015181600801908161077e9190613654565b50610120820151816009015561014082015181600a015f6101000a81548160ff021916908360ff16021790555061016082015181600a0160016101000a81548160ff021916908315150217905550505060015f9054906101000a900473ffffffffffffffffffffffffffffffffffffffff1673ffffffffffffffffffffffffffffffffffffffff166340c10f1933678ac7230489e800006040518363ffffffff1660e01b815260040161083292919061375c565b5f604051808303815f87803b158015610849575f5ffd5b505af115801561085b573d5f5f3e3d5ffd5b505050508873ffffffffffffffffffffffffffffffffffffffff163373ffffffffffffffffffffffffffffffffffffffff167fbc3b22cce674894aa26c3e7d33a80f4ddf9a6f00de71a43fa4b341e1d72a14da85858a8a87426040516108c6969594939291906137d9565b60405180910390a3505050505050505050565b600481815481106108e8575f80fd5b905f5260205f20015f915054906101000a900473ffffffffffffffffffffffffffffffffffffffff1681565b61091c61229f565b5f73ffffffffffffffffffffffffffffffffffffffff168173ffffffffffffffffffffffffffffffffffffffff160361098a576040517f08c379a00000000000000000000000000000000000000000000000000000000081526004016109819061389e565b60405180910390fd5b5f5f90505b600480549050811015610a52578173ffffffffffffffffffffffffffffffffffffffff16600482815481106109c7576109c66138bc565b5b905f5260205f20015f9054906101000a900473ffffffffffffffffffffffffffffffffffffffff1673ffffffffffffffffffffffffffffffffffffffff1603610a45576040517f08c379a0000000000000000000000000000000000000000000000000000000008152600401610a3c90613933565b60405180910390fd5b808060010191505061098f565b50600481908060018154018082558091505060019003905f5260205f20015f9091909190916101000a81548173ffffffffffffffffffffffffffffffffffffffff021916908373ffffffffffffffffffffffffffffffffffffffff1602179055508073ffffffffffffffffffffffffffffffffffffffff167fe366c1c0452ed8eec96861e9e54141ebff23c9ec89fe27b996b45f5ec388498760405160405180910390a250565b610b0161229f565b610b0a5f612326565b565b60605f5f90505f5f90505b600380549050811015610c4f575f60025f60038481548110610b3c57610b3b6138bc565b5b905f5260205f20015f9054906101000a900473ffffffffffffffffffffffffffffffffffffffff1673ffffffffffffffffffffffffffffffffffffffff1673ffffffffffffffffffffffffffffffffffffffff1681526020019081526020015f2090505f5f90505b8180549050811015610c405785604051602001610bc1919061398b565b60405160208183030381529060405280519060200120828281548110610bea57610be96138bc565b5b905f5260205f2090600b0201600501604051602001610c099190613a21565b6040516020818303038152906040528051906020012003610c33578380610c2f90613a64565b9450505b8080600101915050610ba4565b50508080600101915050610b17565b505f8167ffffffffffffffff811115610c6b57610c6a6124fe565b5b604051908082528060200260200182016040528015610ca457816020015b610c916123ee565b815260200190600190039081610c895790505b5090505f5f90505f5f90505b60038054905081101561130b575f60025f60038481548110610cd557610cd46138bc565b5b905f5260205f20015f9054906101000a900473ffffffffffffffffffffffffffffffffffffffff1673ffffffffffffffffffffffffffffffffffffffff1673ffffffffffffffffffffffffffffffffffffffff1681526020019081526020015f2090505f5f90505b81805490508110156112fc5787604051602001610d5a919061398b565b60405160208183030381529060405280519060200120828281548110610d8357610d826138bc565b5b905f5260205f2090600b0201600501604051602001610da29190613a21565b60405160208183030381529060405280519060200120036112ef57818181548110610dd057610dcf6138bc565b5b905f5260205f2090600b0201604051806101800160405290815f82015f9054906101000a900473ffffffffffffffffffffffffffffffffffffffff1673ffffffffffffffffffffffffffffffffffffffff1673ffffffffffffffffffffffffffffffffffffffff168152602001600182015f9054906101000a900473ffffffffffffffffffffffffffffffffffffffff1673ffffffffffffffffffffffffffffffffffffffff1673ffffffffffffffffffffffffffffffffffffffff168152602001600282018054610ea19061348d565b80601f0160208091040260200160405190810160405280929190818152602001828054610ecd9061348d565b8015610f185780601f10610eef57610100808354040283529160200191610f18565b820191905f5260205f20905b815481529060010190602001808311610efb57829003601f168201915b50505050508152602001600382018054610f319061348d565b80601f0160208091040260200160405190810160405280929190818152602001828054610f5d9061348d565b8015610fa85780601f10610f7f57610100808354040283529160200191610fa8565b820191905f5260205f20905b815481529060010190602001808311610f8b57829003601f168201915b50505050508152602001600482018054610fc19061348d565b80601f0160208091040260200160405190810160405280929190818152602001828054610fed9061348d565b80156110385780601f1061100f57610100808354040283529160200191611038565b820191905f5260205f20905b81548152906001019060200180831161101b57829003601f168201915b505050505081526020016005820180546110519061348d565b80601f016020809104026020016040519081016040528092919081815260200182805461107d9061348d565b80156110c85780601f1061109f576101008083540402835291602001916110c8565b820191905f5260205f20905b8154815290600101906020018083116110ab57829003601f168201915b505050505081526020016006820180546110e19061348d565b80601f016020809104026020016040519081016040528092919081815260200182805461110d9061348d565b80156111585780601f1061112f57610100808354040283529160200191611158565b820191905f5260205f20905b81548152906001019060200180831161113b57829003601f168201915b505050505081526020016007820180546111719061348d565b80601f016020809104026020016040519081016040528092919081815260200182805461119d9061348d565b80156111e85780601f106111bf576101008083540402835291602001916111e8565b820191905f5260205f20905b8154815290600101906020018083116111cb57829003601f168201915b505050505081526020016008820180546112019061348d565b80601f016020809104026020016040519081016040528092919081815260200182805461122d9061348d565b80156112785780601f1061124f57610100808354040283529160200191611278565b820191905f5260205f20905b81548152906001019060200180831161125b57829003601f168201915b5050505050815260200160098201548152602001600a82015f9054906101000a900460ff1660ff1660ff168152602001600a820160019054906101000a900460ff1615151515815250508585815181106112d5576112d46138bc565b5b602002602001018190525083806112eb90613a64565b9450505b8080600101915050610d3d565b50508080600101915050610cb0565b50819350505050919050565b5f5f5f9054906101000a900473ffffffffffffffffffffffffffffffffffffffff16905090565b60608060608060608060608060608060605f60025f8e73ffffffffffffffffffffffffffffffffffffffff1673ffffffffffffffffffffffffffffffffffffffff1681526020019081526020015f2090505f818054905090508067ffffffffffffffff8111156113b1576113b06124fe565b5b6040519080825280602002602001820160405280156113df5781602001602082028036833780820191505090505b509c508067ffffffffffffffff8111156113fc576113fb6124fe565b5b60405190808252806020026020018201604052801561142f57816020015b606081526020019060019003908161141a5790505b509b508067ffffffffffffffff81111561144c5761144b6124fe565b5b60405190808252806020026020018201604052801561147f57816020015b606081526020019060019003908161146a5790505b509a508067ffffffffffffffff81111561149c5761149b6124fe565b5b6040519080825280602002602001820160405280156114cf57816020015b60608152602001906001900390816114ba5790505b5099508067ffffffffffffffff8111156114ec576114eb6124fe565b5b60405190808252806020026020018201604052801561151f57816020015b606081526020019060019003908161150a5790505b5098508067ffffffffffffffff81111561153c5761153b6124fe565b5b60405190808252806020026020018201604052801561156f57816020015b606081526020019060019003908161155a5790505b5097508067ffffffffffffffff81111561158c5761158b6124fe565b5b6040519080825280602002602001820160405280156115bf57816020015b60608152602001906001900390816115aa5790505b5096508067ffffffffffffffff8111156115dc576115db6124fe565b5b60405190808252806020026020018201604052801561160f57816020015b60608152602001906001900390816115fa5790505b5095508067ffffffffffffffff81111561162c5761162b6124fe565b5b60405190808252806020026020018201604052801561165a5781602001602082028036833780820191505090505b5094508067ffffffffffffffff811115611677576116766124fe565b5b6040519080825280602002602001820160405280156116a55781602001602082028036833780820191505090505b5093508067ffffffffffffffff8111156116c2576116c16124fe565b5b6040519080825280602002602001820160405280156116f05781602001602082028036833780820191505090505b5092505f5f90505b81811015611cd2575f838281548110611714576117136138bc565b5b905f5260205f2090600b02019050805f015f9054906101000a900473ffffffffffffffffffffffffffffffffffffffff168f8381518110611758576117576138bc565b5b602002602001019073ffffffffffffffffffffffffffffffffffffffff16908173ffffffffffffffffffffffffffffffffffffffff16815250508060020180546117a19061348d565b80601f01602080910402602001604051908101604052809291908181526020018280546117cd9061348d565b80156118185780601f106117ef57610100808354040283529160200191611818565b820191905f5260205f20905b8154815290600101906020018083116117fb57829003601f168201915b50505050508e83815181106118305761182f6138bc565b5b602002602001018190525080600301805461184a9061348d565b80601f01602080910402602001604051908101604052809291908181526020018280546118769061348d565b80156118c15780601f10611898576101008083540402835291602001916118c1565b820191905f5260205f20905b8154815290600101906020018083116118a457829003601f168201915b50505050508d83815181106118d9576118d86138bc565b5b60200260200101819052508060040180546118f39061348d565b80601f016020809104026020016040519081016040528092919081815260200182805461191f9061348d565b801561196a5780601f106119415761010080835404028352916020019161196a565b820191905f5260205f20905b81548152906001019060200180831161194d57829003601f168201915b50505050508c8381518110611982576119816138bc565b5b602002602001018190525080600501805461199c9061348d565b80601f01602080910402602001604051908101604052809291908181526020018280546119c89061348d565b8015611a135780601f106119ea57610100808354040283529160200191611a13565b820191905f5260205f20905b8154815290600101906020018083116119f657829003601f168201915b50505050508b8381518110611a2b57611a2a6138bc565b5b6020026020010181905250806006018054611a459061348d565b80601f0160208091040260200160405190810160405280929190818152602001828054611a719061348d565b8015611abc5780601f10611a9357610100808354040283529160200191611abc565b820191905f5260205f20905b815481529060010190602001808311611a9f57829003601f168201915b50505050508a8381518110611ad457611ad36138bc565b5b6020026020010181905250806007018054611aee9061348d565b80601f0160208091040260200160405190810160405280929190818152602001828054611b1a9061348d565b8015611b655780601f10611b3c57610100808354040283529160200191611b65565b820191905f5260205f20905b815481529060010190602001808311611b4857829003601f168201915b5050505050898381518110611b7d57611b7c6138bc565b5b6020026020010181905250806008018054611b979061348d565b80601f0160208091040260200160405190810160405280929190818152602001828054611bc39061348d565b8015611c0e5780601f10611be557610100808354040283529160200191611c0e565b820191905f5260205f20905b815481529060010190602001808311611bf157829003601f168201915b5050505050888381518110611c2657611c256138bc565b5b60200260200101819052508060090154878381518110611c4957611c486138bc565b5b60200260200101818152505080600a015f9054906101000a900460ff16868381518110611c7957611c786138bc565b5b602002602001019060ff16908160ff168152505080600a0160019054906101000a900460ff16858381518110611cb257611cb16138bc565b5b6020026020010190151590811515815250505080806001019150506116f8565b50505091939597999b90929496989a50565b60606004805480602002602001604051908101604052809291908181526020018280548015611d6557602002820191905f5260205f20905b815f9054906101000a900473ffffffffffffffffffffffffffffffffffffffff1673ffffffffffffffffffffffffffffffffffffffff1681526020019060010190808311611d1c575b5050505050905090565b60606003805480602002602001604051908101604052809291908181526020018280548015611df057602002820191905f5260205f20905b815f9054906101000a900473ffffffffffffffffffffffffffffffffffffffff1673ffffffffffffffffffffffffffffffffffffffff1681526020019060010190808311611da7575b5050505050905090565b611e0261229f565b5f73ffffffffffffffffffffffffffffffffffffffff168173ffffffffffffffffffffffffffffffffffffffff1603611e72575f6040517f1e4fbdf7000000000000000000000000000000000000000000000000000000008152600401611e69919061284d565b60405180910390fd5b611e7b81612326565b50565b5f5f90505f5f90505b600480549050811015611f185760048181548110611ea857611ea76138bc565b5b905f5260205f20015f9054906101000a900473ffffffffffffffffffffffffffffffffffffffff1673ffffffffffffffffffffffffffffffffffffffff163373ffffffffffffffffffffffffffffffffffffffff1603611f0b5760019150611f18565b8080600101915050611e87565b5080611f59576040517f08c379a0000000000000000000000000000000000000000000000000000000008152600401611f5090613af5565b60405180910390fd5b60025f8473ffffffffffffffffffffffffffffffffffffffff1673ffffffffffffffffffffffffffffffffffffffff1681526020019081526020015f20805490508210611fdb576040517f08c379a0000000000000000000000000000000000000000000000000000000008152600401611fd290613b5d565b60405180910390fd5b5f60025f8573ffffffffffffffffffffffffffffffffffffffff1673ffffffffffffffffffffffffffffffffffffffff1681526020019081526020015f20838154811061202b5761202a6138bc565b5b905f5260205f2090600b0201905080600a0160019054906101000a900460ff161561208b576040517f08c379a000000000000000000000000000000000000000000000000000000000815260040161208290613bc5565b60405180910390fd5b600181600a0160016101000a81548160ff02191690831515021790555060015f9054906101000a900473ffffffffffffffffffffffffffffffffffffffff1673ffffffffffffffffffffffffffffffffffffffff166340c10f19825f015f9054906101000a900473ffffffffffffffffffffffffffffffffffffffff16678ac7230489e800006040518363ffffffff1660e01b815260040161212e92919061375c565b5f604051808303815f87803b158015612145575f5ffd5b505af1158015612157573d5f5f3e3d5ffd5b5050505060015f9054906101000a900473ffffffffffffffffffffffffffffffffffffffff1673ffffffffffffffffffffffffffffffffffffffff166340c10f1933674563918244f400006040518363ffffffff1660e01b81526004016121bf929190613c1c565b5f604051808303815f87803b1580156121d6575f5ffd5b505af11580156121e8573d5f5f3e3d5ffd5b50505050805f015f9054906101000a900473ffffffffffffffffffffffffffffffffffffffff1673ffffffffffffffffffffffffffffffffffffffff163373ffffffffffffffffffffffffffffffffffffffff16847f4cd73e06438bde3fa2f643c1f14c5ac8523b7ac43ad2b4a22bf0fe700745cb114260405161226c9190613c43565b60405180910390a450505050565b60015f9054906101000a900473ffffffffffffffffffffffffffffffffffffffff1681565b6122a76123e7565b73ffffffffffffffffffffffffffffffffffffffff166122c5611317565b73ffffffffffffffffffffffffffffffffffffffff1614612324576122e86123e7565b6040517f118cdaa700000000000000000000000000000000000000000000000000000000815260040161231b919061284d565b60405180910390fd5b565b5f5f5f9054906101000a900473ffffffffffffffffffffffffffffffffffffffff169050815f5f6101000a81548173ffffffffffffffffffffffffffffffffffffffff021916908373ffffffffffffffffffffffffffffffffffffffff1602179055508173ffffffffffffffffffffffffffffffffffffffff168173ffffffffffffffffffffffffffffffffffffffff167f8be0079c531659141344cd1fd0a4f28419497f9722a3daafe3b4186f6b6457e060405160405180910390a35050565b5f33905090565b6040518061018001604052805f73ffffffffffffffffffffffffffffffffffffffff1681526020015f73ffffffffffffffffffffffffffffffffffffffff168152602001606081526020016060815260200160608152602001606081526020016060815260200160608152602001606081526020015f81526020015f60ff1681526020015f151581525090565b5f604051905090565b5f5ffd5b5f5ffd5b5f73ffffffffffffffffffffffffffffffffffffffff82169050919050565b5f6124b58261248c565b9050919050565b6124c5816124ab565b81146124cf575f5ffd5b50565b5f813590506124e0816124bc565b92915050565b5f5ffd5b5f5ffd5b5f601f19601f8301169050919050565b7f4e487b71000000000000000000000000000000000000000000000000000000005f52604160045260245ffd5b612534826124ee565b810181811067ffffffffffffffff82111715612553576125526124fe565b5b80604052505050565b5f61256561247b565b9050612571828261252b565b919050565b5f67ffffffffffffffff8211156125905761258f6124fe565b5b612599826124ee565b9050602081019050919050565b828183375f83830152505050565b5f6125c66125c184612576565b61255c565b9050828152602081018484840111156125e2576125e16124ea565b5b6125ed8482856125a6565b509392505050565b5f82601f830112612609576126086124e6565b5b81356126198482602086016125b4565b91505092915050565b5f60ff82169050919050565b61263781612622565b8114612641575f5ffd5b50565b5f813590506126528161262e565b92915050565b5f5f5f5f5f5f5f5f5f6101208a8c03121561267657612675612484565b5b5f6126838c828d016124d2565b99505060208a013567ffffffffffffffff8111156126a4576126a3612488565b5b6126b08c828d016125f5565b98505060408a013567ffffffffffffffff8111156126d1576126d0612488565b5b6126dd8c828d016125f5565b97505060608a013567ffffffffffffffff8111156126fe576126fd612488565b5b61270a8c828d016125f5565b96505060808a013567ffffffffffffffff81111561272b5761272a612488565b5b6127378c828d016125f5565b95505060a08a013567ffffffffffffffff81111561275857612757612488565b5b6127648c828d016125f5565b94505060c08a013567ffffffffffffffff81111561278557612784612488565b5b6127918c828d016125f5565b93505060e08a013567ffffffffffffffff8111156127b2576127b1612488565b5b6127be8c828d016125f5565b9250506101006127d08c828d01612644565b9150509295985092959850929598565b5f819050919050565b6127f2816127e0565b81146127fc575f5ffd5b50565b5f8135905061280d816127e9565b92915050565b5f6020828403121561282857612827612484565b5b5f612835848285016127ff565b91505092915050565b612847816124ab565b82525050565b5f6020820190506128605f83018461283e565b92915050565b5f6020828403121561287b5761287a612484565b5b5f612888848285016124d2565b91505092915050565b5f602082840312156128a6576128a5612484565b5b5f82013567ffffffffffffffff8111156128c3576128c2612488565b5b6128cf848285016125f5565b91505092915050565b5f81519050919050565b5f82825260208201905092915050565b5f819050602082019050919050565b61290a816124ab565b82525050565b5f81519050919050565b5f82825260208201905092915050565b8281835e5f83830152505050565b5f61294282612910565b61294c818561291a565b935061295c81856020860161292a565b612965816124ee565b840191505092915050565b612979816127e0565b82525050565b61298881612622565b82525050565b5f8115159050919050565b6129a28161298e565b82525050565b5f61018083015f8301516129be5f860182612901565b5060208301516129d16020860182612901565b50604083015184820360408601526129e98282612938565b91505060608301518482036060860152612a038282612938565b91505060808301518482036080860152612a1d8282612938565b91505060a083015184820360a0860152612a378282612938565b91505060c083015184820360c0860152612a518282612938565b91505060e083015184820360e0860152612a6b8282612938565b915050610100830151848203610100860152612a878282612938565b915050610120830151612a9e610120860182612970565b50610140830151612ab361014086018261297f565b50610160830151612ac8610160860182612999565b508091505092915050565b5f612ade83836129a8565b905092915050565b5f602082019050919050565b5f612afc826128d8565b612b0681856128e2565b935083602082028501612b18856128f2565b805f5b85811015612b535784840389528151612b348582612ad3565b9450612b3f83612ae6565b925060208a01995050600181019050612b1b565b50829750879550505050505092915050565b5f6020820190508181035f830152612b7d8184612af2565b905092915050565b5f81519050919050565b5f82825260208201905092915050565b5f819050602082019050919050565b5f612bb98383612901565b60208301905092915050565b5f602082019050919050565b5f612bdb82612b85565b612be58185612b8f565b9350612bf083612b9f565b805f5b83811015612c20578151612c078882612bae565b9750612c1283612bc5565b925050600181019050612bf3565b5085935050505092915050565b5f81519050919050565b5f82825260208201905092915050565b5f819050602082019050919050565b5f612c618383612938565b905092915050565b5f602082019050919050565b5f612c7f82612c2d565b612c898185612c37565b935083602082028501612c9b85612c47565b805f5b85811015612cd65784840389528151612cb78582612c56565b9450612cc283612c69565b925060208a01995050600181019050612c9e565b50829750879550505050505092915050565b5f81519050919050565b5f82825260208201905092915050565b5f819050602082019050919050565b5f612d1c8383612970565b60208301905092915050565b5f602082019050919050565b5f612d3e82612ce8565b612d488185612cf2565b9350612d5383612d02565b805f5b83811015612d83578151612d6a8882612d11565b9750612d7583612d28565b925050600181019050612d56565b5085935050505092915050565b5f81519050919050565b5f82825260208201905092915050565b5f819050602082019050919050565b5f612dc4838361297f565b60208301905092915050565b5f602082019050919050565b5f612de682612d90565b612df08185612d9a565b9350612dfb83612daa565b805f5b83811015612e2b578151612e128882612db9565b9750612e1d83612dd0565b925050600181019050612dfe565b5085935050505092915050565b5f81519050919050565b5f82825260208201905092915050565b5f819050602082019050919050565b5f612e6c8383612999565b60208301905092915050565b5f602082019050919050565b5f612e8e82612e38565b612e988185612e42565b9350612ea383612e52565b805f5b83811015612ed3578151612eba8882612e61565b9750612ec583612e78565b925050600181019050612ea6565b5085935050505092915050565b5f610160820190508181035f830152612ef9818e612bd1565b90508181036020830152612f0d818d612c75565b90508181036040830152612f21818c612c75565b90508181036060830152612f35818b612c75565b90508181036080830152612f49818a612c75565b905081810360a0830152612f5d8189612c75565b905081810360c0830152612f718188612c75565b905081810360e0830152612f858187612c75565b9050818103610100830152612f9a8186612d34565b9050818103610120830152612faf8185612ddc565b9050818103610140830152612fc48184612e84565b90509c9b505050505050505050505050565b5f6020820190508181035f830152612fee8184612bd1565b905092915050565b5f5f6040838503121561300c5761300b612484565b5b5f613019858286016124d2565b925050602061302a858286016127ff565b9150509250929050565b5f819050919050565b5f61305761305261304d8461248c565b613034565b61248c565b9050919050565b5f6130688261303d565b9050919050565b5f6130798261305e565b9050919050565b6130898161306f565b82525050565b5f6020820190506130a25f830184613080565b92915050565b5f82825260208201905092915050565b7f496e76616c696420656e646f72736565000000000000000000000000000000005f82015250565b5f6130ec6010836130a8565b91506130f7826130b8565b602082019050919050565b5f6020820190508181035f830152613119816130e0565b9050919050565b7f526561736f6e20726571756972656400000000000000000000000000000000005f82015250565b5f613154600f836130a8565b915061315f82613120565b602082019050919050565b5f6020820190508181035f83015261318181613148565b9050919050565b7f49504653206861736820726571756972656400000000000000000000000000005f82015250565b5f6131bc6012836130a8565b91506131c782613188565b602082019050919050565b5f6020820190508181035f8301526131e9816131b0565b9050919050565b7f456e646f72736572206e616d65207265717569726564000000000000000000005f82015250565b5f6132246016836130a8565b915061322f826131f0565b602082019050919050565b5f6020820190508181035f83015261325181613218565b9050919050565b7f456e646f72736565206e616d65207265717569726564000000000000000000005f82015250565b5f61328c6016836130a8565b915061329782613258565b602082019050919050565b5f6020820190508181035f8301526132b981613280565b9050919050565b7f4c6f636174696f6e2072657175697265640000000000000000000000000000005f82015250565b5f6132f46011836130a8565b91506132ff826132c0565b602082019050919050565b5f6020820190508181035f830152613321816132e8565b9050919050565b7f4f636375706174696f6e207265717569726564000000000000000000000000005f82015250565b5f61335c6013836130a8565b915061336782613328565b602082019050919050565b5f6020820190508181035f83015261338981613350565b9050919050565b7f50686f6e65206e756d62657220726571756972656400000000000000000000005f82015250565b5f6133c46015836130a8565b91506133cf82613390565b602082019050919050565b5f6020820190508181035f8301526133f1816133b8565b9050919050565b7f526576696577206d757374206265206265747765656e203020616e64203500005f82015250565b5f61342c601e836130a8565b9150613437826133f8565b602082019050919050565b5f6020820190508181035f83015261345981613420565b9050919050565b7f4e487b71000000000000000000000000000000000000000000000000000000005f52602260045260245ffd5b5f60028204905060018216806134a457607f821691505b6020821081036134b7576134b6613460565b5b50919050565b5f819050815f5260205f209050919050565b5f6020601f8301049050919050565b5f82821b905092915050565b5f600883026135197fffffffffffffffffffffffffffffffffffffffffffffffffffffffffffffffff826134de565b61352386836134de565b95508019841693508086168417925050509392505050565b5f61355561355061354b846127e0565b613034565b6127e0565b9050919050565b5f819050919050565b61356e8361353b565b61358261357a8261355c565b8484546134ea565b825550505050565b5f5f905090565b61359961358a565b6135a4818484613565565b505050565b5b818110156135c7576135bc5f82613591565b6001810190506135aa565b5050565b601f82111561360c576135dd816134bd565b6135e6846134cf565b810160208510156135f5578190505b613609613601856134cf565b8301826135a9565b50505b505050565b5f82821c905092915050565b5f61362c5f1984600802613611565b1980831691505092915050565b5f613644838361361d565b9150826002028217905092915050565b61365d82612910565b67ffffffffffffffff811115613676576136756124fe565b5b613680825461348d565b61368b8282856135cb565b5f60209050601f8311600181146136bc575f84156136aa578287015190505b6136b48582613639565b86555061371b565b601f1984166136ca866134bd565b5f5b828110156136f1578489015182556001820191506020850194506020810190506136cc565b8683101561370e578489015161370a601f89168261361d565b8355505b6001600288020188555050505b505050505050565b5f819050919050565b5f61374661374161373c84613723565b613034565b6127e0565b9050919050565b6137568161372c565b82525050565b5f60408201905061376f5f83018561283e565b61377c602083018461374d565b9392505050565b5f61378d82612910565b61379781856130a8565b93506137a781856020860161292a565b6137b0816124ee565b840191505092915050565b6137c481612622565b82525050565b6137d3816127e0565b82525050565b5f60c0820190508181035f8301526137f18189613783565b905081810360208301526138058188613783565b905081810360408301526138198187613783565b9050818103606083015261382d8186613783565b905061383c60808301856137bb565b61384960a08301846137ca565b979650505050505050565b7f496e76616c69642076616c696461746f720000000000000000000000000000005f82015250565b5f6138886011836130a8565b915061389382613854565b602082019050919050565b5f6020820190508181035f8301526138b58161387c565b9050919050565b7f4e487b71000000000000000000000000000000000000000000000000000000005f52603260045260245ffd5b7f56616c696461746f7220657869737473000000000000000000000000000000005f82015250565b5f61391d6010836130a8565b9150613928826138e9565b602082019050919050565b5f6020820190508181035f83015261394a81613911565b9050919050565b5f81905092915050565b5f61396582612910565b61396f8185613951565b935061397f81856020860161292a565b80840191505092915050565b5f613996828461395b565b915081905092915050565b5f81546139ad8161348d565b6139b78186613951565b9450600182165f81146139d157600181146139e657613a18565b60ff1983168652811515820286019350613a18565b6139ef856134bd565b5f5b83811015613a10578154818901526001820191506020810190506139f1565b838801955050505b50505092915050565b5f613a2c82846139a1565b915081905092915050565b7f4e487b71000000000000000000000000000000000000000000000000000000005f52601160045260245ffd5b5f613a6e826127e0565b91507fffffffffffffffffffffffffffffffffffffffffffffffffffffffffffffffff8203613aa057613a9f613a37565b5b600182019050919050565b7f4e6f7420612076616c696461746f7200000000000000000000000000000000005f82015250565b5f613adf600f836130a8565b9150613aea82613aab565b602082019050919050565b5f6020820190508181035f830152613b0c81613ad3565b9050919050565b7f496e76616c696420696e646578000000000000000000000000000000000000005f82015250565b5f613b47600d836130a8565b9150613b5282613b13565b602082019050919050565b5f6020820190508181035f830152613b7481613b3b565b9050919050565b7f416c72656164792076616c6964617465640000000000000000000000000000005f82015250565b5f613baf6011836130a8565b9150613bba82613b7b565b602082019050919050565b5f6020820190508181035f830152613bdc81613ba3565b9050919050565b5f819050919050565b5f613c06613c01613bfc84613be3565b613034565b6127e0565b9050919050565b613c1681613bec565b82525050565b5f604082019050613c2f5f83018561283e565b613c3c6020830184613c0d565b9392505050565b5f602082019050613c565f8301846137ca565b9291505056fea2646970667358221220487d88cdd76165e28ed03730b84b6fe3a53911ac3b8c5650c10e327513447cc064736f6c634300081e0033","linkReferences":{}},"methodIdentifiers":{"addValidator(address)":"4d238c8e","fileEndorsement(address,string,string,string,string,string,string,string,uint8)":"04b3c6e9","getAllEndorsees()":"ce27cc2d","getEndorsements(address)":"b666ca9d","getEndorsementsByOccupation(string)":"8184b1a0","getValidators()":"b7ab4db5","owner()":"8da5cb5b","renounceOwnership()":"715018a6","token()":"fc0c546a","transferOwnership(address)":"f2fde38b","validateEndorsement(address,uint256)":"f57b9fd9","validators(uint256)":"35aa2e44"},"id":22}